:060000000A128A1100291A
:10000800F000030EF1000B1965210B187621710E13
:080018008300F00E700E0900D8
:1002000025210B2112213C21031383120508A00094
:10021000482150210629031383160F140F178F1638
:100220000F12080003138316811281110115811426
:100230000114031383123D3081000B1108000313D6
:1002400083123D3081000B110800031783168801CB
:10025000890103138316870108108810081188117B
:100260000614861485010313831287010810881071
:1002700008118811850108000313831616149614BB
:10028000031383128B178B160B118B150B100800A1
:100290000F302005A200F0302005A300A30E0800B7
:1002A00022080022A40023080022A500080008104C
:1002B0008810211860292408870088142114080058
:1002C000250887000814211008001F215721A60ABD
:1002D0002608143C031D0800A601881D0800081DFF
:1002E00072297429850A08008503080088197B296A
:1002F000081986297E29081994298E290618822929
:1003000088110815861C850A0B10080006188A2912
:1003100088150811861C85030B1008000618922901
:10032000881508150B10080006189829881108115F
:040330000B100800A6
:100400008A018A140F3982073F3406345B344F3433
:1004100066346D347D3407347F346F3477347C3404
:0804200039345E347934713483
:04400E00C430FF3F7C
:00000001FF
